:020000040800F2
:10000000A0E90020690200085F32000833300008D0
:100010005D320008ED170008213A000800000000DA
:10002000000000000000000000000000B9350008DA
:10003000A118000800000000C9340008BB35000802
:10004000830200088302000883020008830200087C
:100050008302000883020008A31800088302000836
:1000600083020008A9180008830200088302000820
:10007000830200088302000883020008830200084C
:1000800083020008830200088302000800000000C9
:10009000000000000000000000000000AF18000891
:1000A000830200088302000883020008830200081C
:1000B000830200088302000883020008830200080C
:1000C00083020008830200088302000883020008FC
:1000D00083020008153A00088302000800000000AF
:1000E0008302000883020008830200080000000069
:1000F0000000000000000000000000008302000873
:100100000000000083020008830200088302000848
:1001100000000000000000000000000000000000DF
:10012000F117000883020008830200088302000818
:100130008302000800000000000000000000000032
:100140000000000000000000000000008302000822
:10015000830200088302000883020008830200086B
:100160008302000883020008000000000000000075
:10017000000000000000000000000000000000007F
:1001800000000000B7180008000000000000000098
:10019000830200084B1C012B98BF70472DE9F00328
:1001A000911C9B08B1F80480B1F802900A8831F8DC
:1001B00002CC8044814402448444D9F80070D8F8C9
:1001C00000601568DCF80040C9F80060C8F80070ED
:1001D000CCF800501460D9F80470D8F80460556861
:1001E000DCF80440C9F80460C8F80470CCF8045086
:1001F000546008315B1ED5D1BDE8F00370474B1C3D
:10020000012B98BF70472DE9F003911C9B08B1F8B2
:100210000480B1F802900A8831F802CC00EB58084B
:1002200000EB590900EB520200EB5C0CD9F80070AE
:10023000D8F800601568DCF80040C9F80060C8F81C
:100240000070CCF80050146008315B1EDFD1BDE8AF
:10025000F0037047DFF80CD001F0DAF900480047EE
:10026000CD480008A0E9002006488047064800471E
:10027000FEE7FEE7FEE7FEE7FEE7FEE7FEE7FEE756
:10028000FEE7FEE745360008550200089FED3D0AEF
:100290005FEA920C57D000BFD0ED000A90ED011A32
:1002A0000B1D60EEA00A083041EE010AF5EEC00A0F
:1002B000F1EE10FAA6BFB1EEE01A81ED001A81ED61
:1002C000000AD0ED000A90ED011A191D60EEA00A97
:1002D000083041EE010AF5EEC00AF1EE10FAA6BFB1
:1002E000B1EEE01A83ED001A83ED000AD0ED000AAA
:1002F00090ED011A0B1D60EEA00A083041EE010AD4
:10030000F5EEC00AF1EE10FAA6BFB1EEE01A81EDEB
:10031000001A81ED000A90ED001AD0ED010A191DB6
:1003200021EE011A083000EEA01AB5EEC01AF1EE67
:1003300010FAA6BFF1EEC10AC3ED000A83ED000A70
:10034000BCF1010CA8D112F0030208BF704700BF36
:10035000D0ED000A90ED011A0B4660EEA00A091DCF
:10036000083041EE010AF5EEC00AF1EE10FAA6BF20
:10037000B1EEE01A83ED001A83ED000A521EE7D1B8
:1003800070470000000000002DE9F04106462DED09
:10039000028B8C460088736801EB80044508274671
:1003A00001EB850004EB85025FEA95087DD000BF74
:1003B000D1ED003AD4ED001A91ED012A94ED013A05
:1003C00073EEA16A91ED024A91ED031AD4ED022A6F
:1003D000D4ED035A90ED008A90ED017A90ED020A77
:1003E00090ED036A92ED005AD2ED014AD2ED027A05
:1003F000D2ED030AC1ED006A72EE036A73EEE13AD0
:1004000074EEC71AC1ED016A74EE226A74EE622AB4
:1004100037EEC04AC1ED026A71EE256AC1ED036A8A
:1004200072EE436A31EE652A38EE051A35EE483A27
:1004300080ED001A37EE241A80ED011A30EE271AEB
:1004400080ED021A36EE201A80ED031A30EEC61A3D
:1004500093ED000AD3ED010A63EE804A26EEA05A1E
:1004600066EE805A63EEA03A74EE854A75EEE33A82
:10047000C4ED004A63EE204AC4ED013A61EE803AD1
:1004800061EEA00A23EE000A74EEE31A30EE800A51
:10049000C2ED001A82ED010A93ED020AD3ED030AC0
:1004A00062EE803A22EE203A00E024E062EEA01AEA
:1004B00022EE002A73EE832A1030103172EE611A98
:1004C000C4ED022A24EE202AC4ED031A61EE001ABC
:1004D00061EE200A24EE000A103332EE611A103465
:1004E00030EE800A82ED021A82ED030A1032B8F172
:1004F00001087FF45DAF294602236046726800F070
:10050000D5FA72682946BDEC028B3846BDE8F04149
:10051000022300F0CBBA2DE9F34F2DED048B87B009
:100520000B980088470801EB870000EB870606EB75
:100530008705CDE90056DDF82C80A5F1040C0CEB05
:100540008703CDE902014FEA5709D8F80480042750
:10055000CDE90497D1ED000A96ED000A90ED011A5D
:1005600095ED013A70EE802A70EEC03AD1ED010AA5
:1005700096ED010A041F321F30EE802A70EEC01A79
:1005800031EE230AD0ED000A32EE415A33EEC11AA1
:1005900030EE434A71EEE04A95ED000A70EEA11A82
:1005A00035EE435A74EE805A72EEE04A70EEA20ABB
:1005B00071EEC01A31EE031A74EEC04A30EE800AB2
:1005C000062708F1080A81ED000A90ED010AD5ED31
:1005D000010A08F1100B30EE020A08F1180830EE9B
:1005E000200A81ED010A80ED004AC0ED015AC6EDF6
:1005F000004A86ED015A85ED001AC5ED011ADDF8B5
:1006000010900830083108350836A9F102095FEA70
:10061000590900F0078100BFD1ED000A96ED000AEC
:10062000D0ED011AD5ED014A30EE802A30EEC05AE5
:10063000D1ED010A96ED010A70EE802A30EEC01A63
:1006400031EE850AD5ED000A30EE644A90ED000ADD
:1006500031EE403A30EE011A73EE205A32EE403A53
:1006600030EE020A31EE601A73EE603A30EE200A84
:1006700032EEE13A75EE611A81ED000A90ED010A61
:10068000D5ED010A33EE643A30EE220A71EEA41A77
:1006900030EE200A81ED010AD4ED002ADCED004A9B
:1006A00054ED010A1CED010A32EEA47A32EEE49A0E
:1006B00072EEE42A52ED018A70EE807A30EEC02AA2
:1006C00072EEE82AD2ED000A93ED000A13ED018ADA
:1006D00030EEC05A72EE886A77EEE82A35EE026A8A
:1006E00032EEC85A77EE602A72EEC04A70EEC02A27
:1006F00070EE870A72EEC22A30EE800A38EE682A5F
:1007000084ED000A12ED010A53ED010A32EE492A86
:1007100030EE270A30EE200A04ED010A9AED000AB5
:10072000DAED010A64EE007A25EEA07A65EE805AD1
:1007300024EE204A37EE877A35EEC44A80ED007AFF
:1007400080ED014A26EEA04A66EE005A66EE200AC7
:1007500026EE800A083034EE654A083130EE800A11
:1007600082ED004A083C02ED010A9BED000ADBED38
:10077000010ADDF814E023EE804A63EE205A23EEEE
:10078000003A63EEA03A083A34EE254A0BEB8E0BA2
:1007900033EE633A86ED004A0AF1080A86ED013A23
:1007A000B1EE643A083663EE003A25EE203A25EEC3
:1007B000000A64EEA00A33EEC33A30EEC00A8CEDB4
:1007C000003A0CED010A98ED000AD8ED010A08EB99
:1007D000870861EE803A21EE203A21EE001A61EEA0
:1007E000A01AACF1080C33EE833A31EE611A85EDB4
:1007F000003A62EE801A85ED011A22EE201A62EEAE
:10080000A00A22EE000A083531EE611A30EE800AA5
:1008100083ED001A03ED010A083BB9F101097FF4E9
:10082000FBAE00BFD1ED000A96ED000A91ED011A72
:10083000D0ED015A30EE802A70EEC00A96ED010A22
:1008400095ED015A042371EE001A71EE404A35EE1F
:10085000A00A90ED001A31EEE54A70EEE50A30EE9E
:10086000453A95ED000A34EE454A30EE855A74EE6D
:10087000C12A72EE413A71EE240A31EE021A72EE8A
:10088000802A73EEC03A70EEC00A31EE000A81EDA4
:10089000000A90ED010A95ED011A30EE210A30EEC2
:1008A000010A81ED010A9AED000A9AED011A63EE40
:1008B000001A22EE812A22EE800A23EE011A71EE3E
:1008C000821A30EE410AC0ED001A80ED010A9BED5C
:1008D000000A9BED011A63EE801A24EE012A24EE31
:1008E000000A23EE811A71EE821A30EE410AC6ED3B
:1008F000001A86ED010A98ED010A98ED001A60EEE3
:10090000801A25EE012A60EE810A25EE000A32EEF9
:10091000211A30EEC00A85ED001A85ED010A0B9808
:100920004268DDE9030100F0C1F80B980423049943
:100930004268029800F0BAF80B98042304994268C0
:10094000019800F0B3F80B980499042342680098CA
:1009500007B0BDEC048B02B0BDE8F04F00F0A6B8C4
:100960002DE9F0410488984617460D460646012AAF
:1009700020D1281DF4B1A0F1080114F0010F06D018
:1009800091ED020AB1EE400A81ED020A08315FEAF8
:10099000540C0FD091ED020AB1EE400A81ED020A2B
:1009A00091ED040AB1EE400A81ED040A1031BCF168
:1009B000010CEFD1B4F5807F1BD008DC102C13D0D4
:1009C000202C16D0402C19D0802C0DD01CE0B4F572
:1009D000007F13D0B4F5806F06D0B4F5006F08D057
:1009E000B4F5805F0AD00FE029463046FFF7CCFC13
:1009F0000AE029463046FFF78EFD05E02146012337
:100A00002846726800F052F8B8F1000F04D0B1899E
:100A10002846B268FFF7BEFB012F18BFBDE8F08182
:100A200000EE104AB7EE001A002CF8EE400A81EEF4
:100A3000200A08BFBDE8F081A5F1080014F0010FFD
:100A40000ED0D0ED020A60EE800AC0ED020AD0EDB1
:100A5000030AF1EE600A60EE800AC0ED030A083076
:100A6000610808BFBDE8F081D0ED020A60EE800A9F
:100A7000C0ED020AD0ED030AF1EE600A60EE800AD2
:100A8000C0ED030AD0ED040A60EE800AC0ED040A4E
:100A9000D0ED050AF1EE600A60EE800AC0ED050AAD
:100AA0001030491EE0D1BDE8F08100002DE9FF4F74
:100AB0002DED108B82B09FEDFEFA0B461C46DB0835
:100AC0004FF0000C0CEB030505EB030808EB0309E2
:100AD00009EB030606EB030A00EBCC0700EBC606A6
:100AE00097ED001AD6ED000A0AEB030B00EBC505E3
:100AF00000EBCA0A31EE200A71EE601A95ED002A69
:100B0000DAED000A0BEB030E00EBC80832EE201AF8
:100B100000EBCB0B32EE602AD8ED002ADBED000AA9
:100B200000EBC90900EBCE0E99ED003A9EED004AAC
:100B300072EEA03A72EEE02A73EE040A33EE443A03
:100B400070EE636A70EE233A31EE600A71EE200AAD
:100B500033EEA01A73EEE00A87ED001AC6ED000A24
:100B600097ED011AD6ED010AD5ED013A98ED014A4B
:100B700031EE206A71EE600A9AED011A99ED015A80
:100B800073EE814A73EEC13A9BED011A34EE017A9D
:100B900034EE411A9EED014A75EE045A35EE444A90
:100BA00036EE475A36EE076A34EEE57A74EEA54A19
:100BB00076EE245A76EE644AC7ED015AC6ED014A34
:100BC00076EE874AC8ED004A76EEC74ACBED004A7A
:100BD00075EE404A35EE000AC8ED014A8BED010A78
:100BE00032EE430A32EE032A20EE0F0A62EE0F4A7B
:100BF00033EEC42AA4448C4522EE0F3A33EE842A05
:100C000030EEC34A62EE0F3A30EE833A31EEC02A3C
:100C100031EE800A71EE630A31EE231A72EEE41AA5
:100C200072EEA42A70EE013A30EE410AC5ED003AA8
:100C30008EED000A32EE200A8AED000A32EE600ADA
:100C400089ED000A33EE620A85ED010A33EE220ACD
:100C50008EED010A34EE610A8AED010A34EE210AB2
:100C600089ED010AFFF42EAF082B3FBF02B0BDECA7
:100C7000108B04B0BDE8F08F4FF0000CCDF804C02D
:100C80004FF0010CCDF800C0DDF804C0159DAC4458
:100C90004FEA8C0505EB0C07CDF804C007EB0C09F7
:100CA0004FEA4C0808EB0C0609EB0C0A02EBCC0CE3
:100CB00002EBC80802EBC60602EBC50502EBC7074C
:100CC00002EBC90902EBCA0A9CED00DA9CED018A2D
:100CD000D8ED00CA96ED00CAD5ED00BA97ED00BA7E
:100CE000D9ED00AADAED008AD8ED017A96ED01AAD5
:100CF00095ED017AD7ED016A99ED016ADAED019A75
:100D0000DDF800C00CEB0307FD1805EB030A0AEB46
:100D1000030808EB030606EB030B00EBCC0900EB22
:100D2000C808D9ED000A98ED000A00EBC70700EBF0
:100D3000C606D7ED001A96ED001A70EE803A0BEB5E
:100D4000030E70EEC00A31EE810A00EBC50500EB20
:100D5000CB0B31EEC11AD5ED001A9BED002A00EB4A
:100D6000CA0A00EBCE0E31EE824A71EEC21A9AED3B
:100D7000002ADEED002A32EE223A32EE622A73EECB
:100D8000C42A73EE843A30EE435A30EE030A33EE4F
:100D9000803A73EEC0DA89ED003A99ED010A98EDD8
:100DA000013AD7ED013A95ED014A70EE03EA30EED3
:100DB000433A96ED010A9AED01EADEED014A33EE7F
:100DC000809A73EEC03A9BED010A74EE005A34EE3D
:100DD000404A3EEE240A7EEE644A3EEEE5EA7EEEAE
:100DE000A55A79EE40EA39EE009A32EEAE0A72EE7A
:100DF000EE2A75EE89EA35EEC99A7EEE455AC9EDBE
:100E000001EA3EEE055A2BEEADEA67EE09EA2BEE5B
:100E1000899A67EE2DDA3EEE2EEA39EE6D9A88ED6C
:100E200000EA67EEA5DA88ED019A2CEE809A6CEE66
:100E3000A55A27EE800A39EE2D9A35EEC00A85EDC7
:100E4000009A66EE055A85ED010A2AEEA20A2AEEFC
:100E5000855A66EE222A30EE250A8BED000A35EE21
:100E6000620A73EEA42A8BED010A31EE420A31EEDA
:100E7000021A33EEE42A62EE8F3A20EE0F0A21EED8
:100E80000F1A22EE0F2A70EEC02A30EE800A71EEA1
:100E9000C10A71EE811A33EE421A33EE022A34EEA1
:100EA000633A34EE234A70EE043A30EE444A01E0ED
:100EB000F304353F72EE834A72EEC32A32EE613A92
:100EC00032EE210A71EE601A71EE200A2DEE232A0D
:100ED00028EE031A2DEE033A68EE233AA44432EECC
:100EE000011A28EE842A8C4587ED001A33EE631A26
:100EF00029EE843A87ED011A29EE801A28EE800A3D
:100F000032EE011A30EE430A26EEA42A8EED001AC4
:100F10008EED010A2BEE240A26EEA11A6BEE211AA1
:100F200030EE010A2CEE221A86ED000A31EEC20ADA
:100F30006AEE221A86ED010A2AEE200A6CEE200AD9
:100F400031EE000A8AED000A30EEE10A8AED010A6C
:100F5000FFF4D8AEDDF800C00CF1010CCDF800C0F4
:100F600063453FF691AEDDF854C04FF6FF7404EAD6
:100F7000CC0CCDF854C0072B3FF6A0AD02B0BDECB1
:100F8000108B04B0BDE8F08F2DE9F05F054600201E
:100F900092469B4688460646814640241BE02846EA
:100FA00041464746224600F04CFA53465A46C01A7C
:100FB000914110D311461846224600F033FA2D1AFB
:100FC00067EB01084F4622460120002100F02AFA73
:100FD00017EB00094E41201EA4F10104DFDC484656
:100FE00031462A464346BDE8F09F40EA01039B078D
:100FF00003D009E008C9121F08C0042AFAD203E08E
:1010000011F8013B00F8013B521EF9D27047D2B2F1
:1010100001E000F8012B491EFBD270470022F6E7E1
:1010200010B513460A4604461946FFF7F0FF20465E
:1010300010BD2DE9FE4F804681EA0300C00F0C462B
:10104000009021F0004123F00045B8EB0200A941D7
:1010500005D24046214690461C460B46024623F0E8
:101060000040104347D0270DC7F30A00C3F30A51CD
:101070000290401A019040286BDAC3F3130040F449
:10108000801B0098924620B10023D2EB030A63EB49
:101090000B0B01985946C0F14002504600F0C2F9CE
:1010A00006460D4650465946019A00F0DAF910EB13
:1010B00008006141002487EA115284EAE7731A4369
:1010C00040D0009A62B3019A012A4FEA075215DC18
:1010D000001B61EB02014FF0004202EA0752CDE92A
:1010E0000042001C41F5801132462B4600F011FAF7
:1010F00003B0BDE8F08F40462146F9E7001B61EBE5
:101100000201001C41F5801300185B412018A2F574
:10111000001747EB030140EAD570B6196D4111E0A5
:101120006D084FEA360645EAC0754FEA0752001BC4
:1011300061EB0201001C41F5801149084FEA3000C3
:101140000019514132462B4603B0BDE8F04F00F084
:10115000D1B90098012240000023D0EB020263EBDA
:10116000E073009821464FEAE074B8EB000061EBB1
:101170000401E9E783F000435BE781F0004158E7B1
:101180002DE9FE4F81EA030404F0004421F0004100
:1011900000944FF0000B23F0004350EA01045ED0AE
:1011A00052EA03045BD0C3F30A54C1F30A552C443A
:1011B000A4F2F3340194A0FB0254C1F3130141F4EF
:1011C0008011C3F3130343F4801301FB024400FBBB
:1011D000034E840A970A44EA815447EA8357A4FBE2
:1011E000076802958D0A05FB07854FEA932C04FBDF
:1011F0000C542705029D4FEA065847EA1637B5EB0F
:1012000008056EEB070C870E920E47EA811742EA3B
:101210008312A7FB0201B6EB0B0164EB00042B0D5C
:1012200043EA0C335E1844EB1C50DA465146E7FBA8
:101230000201C5F313044FEA0B3343EA14534FEA98
:101240000432019C43EA0603A4F10C040294009CBE
:10125000CDE900B400F05DF903B0BDE8F08F0020E7
:101260000146F9E72DE9F04D81EA030404F0004B53
:1012700021F0004514464FF0000A23F0004150EAE7
:10128000050220D054EA01021DD0C5F30A570246D8
:10129000C5F31303C1F31300C1F30A5640F48015DC
:1012A00043F48013A7EB0608101BD64608F2FD385E
:1012B00073EB050002D308F1010801E092185B41CD
:1012C000B8F1000F03DA00200146BDE8F08D0020E0
:1012D0004FF48011064684460EE0171B73EB05079A
:1012E00005D3121B63EB050306434CEA010C4908C6
:1012F0004FEA300092185B4150EA0107EDD152EA03
:10130000030012D082EA040083EA0501084305D0F5
:10131000101BAB4106D20122002306E000224FF051
:10132000004302E06FF0010253101AEB06004CEB91
:10133000085110EB0A0041EB0B01BDE8F04D00F045
:10134000D9B80EB540F2334102910021CDE9001128
:101350000A460B4600F0DDF803B000BD70B5C1F3DE
:101360000A5201F000450024C1F3130140F2FF339B
:1013700041F480119A4201DA002070BD40F23343FB
:101380009A42A2F2334203DC524200F05AF800E0E3
:1013900090402C43F1D0404270BD00F0004230F04C
:1013A00000400AD0C10D01F56071C0F3160042EA99
:1013B0000151C208400711437047002001467047A1
:1013C00001F0004330B421F0004150EA010206D0A0
:1013D0000A0DA2F56072C1F31301002A02DC30BCD1
:1013E00000207047440F44EAC104C100E01830BC3B
:1013F00000EBC25000F047B830B50B460146002064
:101400002022012409E021FA02F59D4205D303FAC6
:1014100002F5491B04FA02F52844151EA2F1010247
:10142000F1DC30BD202A04DB203A00FA02F1002072
:1014300070479140C2F1200320FA03F31943904012
:101440007047202A04DB203A21FA02F0002170477D
:1014500021FA02F3D040C2F120029140084319461C
:101460007047202A06DBCB17203A41FA02F043EA04
:10147000E07306E041FA02F3D040C2F1200291404D
:101480000843194670470029A8BF7047401C49000F
:1014900008BF20F00100704710B4B0FA80FC00FAD9
:1014A0000CF050EA010404BF10BC704749B1CCF104
:1014B000200421FA04F411FA0CF118BF0121214390
:1014C0000843A3EB0C01CB1D4FEA00614FEA10204B
:1014D00042BF002010BC704700EBC35010440029ED
:1014E000A4BF10BC7047401C490008BF20F0010099
:1014F00010BC704710B5141E73F1000408DA401CCC
:1015000041F1000192185B411A4301D120F0010022
:1015100010BD2DE9F04D92469B4611B1B1FA81F212
:1015200002E0B0FA80F220329046FFF77BFF0446DB
:101530000F4640EA0A0041EA0B0153465A46084367
:1015400013D0114653EA010019D0C8F140025046A9
:10155000FFF777FF05460E46504659464246FFF7CD
:1015600061FF084305D0012004E020463946BDE86C
:10157000F08D0020054346EAE0762C4337430A9875
:101580006305E40AA0EB08000022FD0A44EA475480
:101590000A3002D500200146E9E70105101969412A
:1015A000DDE9084500196941BDE8F04DA2E7C1F346
:1015B0000A52C1F3130140F2FF3341F480119A4201
:1015C00002DA00200146704740F233439A42A2F209
:1015D000334202DC5242FFF734BFFFF723BF000063
:1015E00030B5041E71F1000404DB4FF000444042AA
:1015F00064EB0101141E73F1000405DB1C464FF07F
:101600000043524263EB0403994208BF904230BD4D
:10161000064C074D06E0E06840F0010394E807003F
:1016200098471034AC42F6D3FEF718FE30F10008AC
:1016300050F1000810B50146806B026C12F0500F9B
:1016400005D0026CD20626D500F061FA10BD016CFF
:1016500041F40071016401688A6812F0405F17D19B
:10166000027EAAB9CA6A12F4700F02D08A685205C3
:101670000ED44A6822F020024A60016C21F4807185
:101680000164016CC90403D4016C41F001010164DF
:1016900000F0CCF910BD806BC26CBDE8104008466C
:1016A000104710B5806B40210164416C41F004018A
:1016B000416400F02CFA10BD10B5806B00F026FAE2
:1016C00010BD0000464910B54A6822F440324A6015
:1016D0004A6843681A434A6001684A6822F4807283
:1016E0004A6001684A68036942EA03224A60016865
:1016F0004A6822F040724A6001684A6883681A4367
:101700004A6001688A6822F400628A6001688A6817
:10171000C3681A438A60816A6FF07062D1420168BF
:101720008A6822F070628A6001688A680CD0836AD5
:101730001A438A6001688A6822F040528A60016810
:101740008A68C36A1A4301E022F040528A60016845
:101750008A6822F002028A6001688A68037E42EA8F
:1017600043028A6090F82010002901684A680FD06F
:1017700042F400624A6001684A6822F460424A60AA
:1017800001684A68174C436A04EB43331A4301E08B
:1017900022F400624A600168CA6A22F47002CA62D6
:1017A0000168CA6A838B104C04EB03531A43CA6264
:1017B00001688A6822F400728A6001688A6890F879
:1017C000303042EA43228A6001688A6822F48062EB
:1017D0008A6001688A68406942EA8020886010BD9A
:1017E0000023014000E0FFFF0000F0FFFEE70000E3
:1017F000014800F097BA000068E000200168182353
:10180000CAB2103AB2FBF3F2054B6FF30901032A97
:101810009B5CC36500D9091D8165084670470000BF
:101820006849000810B5014600208B698A6A4FF0AC
:10183000C07453B1B3F5005F15D072B1012A0CD05A
:10184000022A0AD0032A09D104E01AB1012A06D0DB
:10185000022A03D1C96AC90100D5012010BDC96A95
:10186000A142FAD010BD002AF7D0012AF2D0022AF4
:10187000F3D0032AF3D010BD30B50468256825F4F1
:1018800080252560046863608368402B036803D06B
:1018900099600068C26030BD9A600068C16030BD68
:1018A0007047012000F038BC082000F035BC8020D3
:1018B00000F032BC7047704710B50021074B0A4654
:1018C0005FF0000003EBC004401CC0B262548028EB
:1018D000F8D3491CC9B20829F2D310BDA0E10020F9
:1018E00078B50024009490F83C20012A19D00122F8
:1018F00080F83C200A6807230568092A13D9EE6896
:101900000A3A02EB420293409E43EE600B788A68EB
:101910000A3B03EB43039A400368DD682A43DA601D
:1019200010E0022078BD2E6902EB420293409E43F4
:101930002E610B788A6803EB43039A4003681D69A4
:101940002A431A614A681F23072A13D205686E6B5F
:10195000521E02EB820293409E436E630B790A880B
:101960005B1E92B203EB83039A4003685D6B2A43CC
:101970005A6327E005680D2A12D22E6BD21F02EBA4
:10198000820293409E432E630B790A88DB1F92B23A
:1019900003EB83039A4003681D6B2A431A6311E02B
:1019A000EE6A0D3A02EB820293409E43EE620B799F
:1019B0000A880D3B92B203EB83039A400368DD6A09
:1019C0002A43DA62164B0568144A9D4206D10D6817
:1019D000122D03D1556845F48005556005689D4278
:1019E00018D10B68102B01D0112B13D1536843F47D
:1019F00000035360096810290CD10A490A4A096892
:101A0000B1FBF2F101EB8101490000E0491E0091B8
:101A10000029FBD180F83C40002078BD0023014024
:101A2000002001401800002040420F002DE9F04145
:101A3000294F00242DED088B07F500564FF48055F3
:101A40009FED269B9FED27AB9FED28BB9FED298A3D
:101A500037F81400FFF775FC53EC192BFFF790FBD8
:101A600053EC1A2BFFF78CFB53EC1B2BFFF782FB7D
:101A7000FFF7A6FC06EBC401641C086081ED018A37
:101A8000AC42E5DB012300221B491C48FEF768FF3E
:101A90002A461B491848FEF7F9FB1949DFED190AD8
:101AA000012091ED000A20EE200A81ED000A9FED51
:101AB000160A00BF01EB8002401CD2ED000AA842CA
:101AC00060EE800AC2ED000AF4DBBDEC088BBDE8D5
:101AD000F04102F06DBC00002000002066666666E2
:101AE00066660A40000000000000303F66666666D9
:101AF0006666FA3F0000000020200020A051000888
:101B000020A00020000080390000003A7047704794
:101B100070B504004FF0000503D0206C002610B112
:101B200007E0012070BD204600F01CF8666484F8D0
:101B30003C60206CC00610D4206C20F4885040F02B
:101B4000020020642046FFF7BDFD6664206C20F093
:101B5000020040F00100206400E0012584F83C60B0
:101B6000284670BD70B586B0064614216846FFF75A
:101B700055FA1E493068884236D11D480025016853
:101B800041F480710160006800F48070059018488D
:101B90001438016841F0010101600068694600F0F5
:101BA00001000590022000900320CDE901051148B5
:101BB00000F0BCFA114C1048C4E900050015A560FE
:101BC000C4E90350400060618000A0614011E06101
:101BD0004FF44030C4E90805204600F073F908B11D
:101BE000FFF768FEB463A66306B070BD0020014035
:101BF00044380240000002401064024068E00020C7
:101C0000F8B50E4600210446009190F83C000128EA
:101C100007D0012084F83C0020688368DB0702D0ED
:101C200011E00220F8BD836843F0010383602D4872
:101C30002D4B0068B0FBF3F000EB400000E0401ECD
:101C400000900028FBD120688368DB0748D0236C14
:101C500040F20165AB4343F4807323644068400560
:101C600005D5206C20F4005040F480502064206C96
:101C7000C00404D5606C20F00600606400E061647C
:101C800084F83C10A16B1A48184DC863A16B194821
:101C90000864A16B1848C86421686FF022000860CE
:101CA0002068416841F0806141602068816841F4AA
:101CB000807181602168134632464C31A06B00F080
:101CC0006BF96868C006206802D00C49884207D1C9
:101CD000816811F0405F03D1816841F080418160EB
:101CE0000020F8BD1800002040420F0000230140F2
:101CF00035160008B9160008A31600080020014098
:101D000090F83510022903D08021416501207047E9
:101D1000052180F835100068016821F0010101609B
:101D2000002070472DE9F84304464FF00009CDF834
:101D3000009063484FF41651A56D0068B0FBF1F7B1
:101D40002E6894F85C10082000FA01F131420FD09F
:101D500021680A6852070BD50A6822F004020A605B
:101D600094F85C108840A860606D40F001006065E8
:101D700094F85C104FF0010808FA01F0304208D0E6
:101D800021684969090604D5A860606D40F0020029
:101D9000606594F85C1004208840304208D02168C7
:101DA0000968890704D5A860606D40F0040060658B
:101DB00094F85C1010208840304218D021680968DF
:101DC000090714D5A86020680168490304D5006894
:101DD000000308D5A16C07E00168C90503D40168B8
:101DE00021F008010160216C09B12046884794F870
:101DF0005C1020208840304231D021680968C90633
:101E00002DD5A86094F8350005282068016806D013
:101E1000490347D5006800031DD4616C1CE021F024
:101E2000160101602068416921F080014161206C48
:101E300008B9A06C20B12068016821F00801016098
:101E400094F85C103F208840A86084F8349084F8AF
:101E50003580216D1FE0E16B09B120468847606D38
:101E600000282BD0606DC00714D0052084F8350001
:101E70002068016821F0010101600098401C009079
:101E8000B84203D820680068C007F6D184F83490BF
:101E900084F83580E16C002910D001B02046BDE8FF
:101EA000F04308470168C905D5D4016821F0100145
:101EB000016084F8349084F83580CCE7BDE8F8837D
:101EC000180000202DE9F041044600F003FA064610
:101ED0005CB1002584F83450022084F83500206875
:101EE000016821F0010101600DE00120BDE8F081F1
:101EF00000F0F0F9801B052805D92020606503203B
:101F000084F83500F2E720680068C007F0D1226845
:101F1000116820480140D4E901031843D4E903368D
:101F20003343184363691843A3691843E3691843AB
:101F3000236A18430843616A042903D1D4E90B13C7
:101F400019430843106020684069666A20F0070161
:101F500030460E43012704280CD1A06A0643E06AEC
:101F600040B12046FFF75EFC20B14020606584F858
:101F70003570BAE7206846612046FFF73FFC94F8C9
:101F80005C203F2191408160656584F835700020B8
:101F9000ACE700003F8010F02DE9F0410446866D6B
:101FA00090F83400002501280DD0012084F8340079
:101FB00094F835700020012F07D084F834000225F2
:101FC0002846BDE8F0810220FBE7022784F835703F
:101FD00060652046FFF750FC94F85C103F20884075
:101FE000B0602068016841F016010160206C20B1EA
:101FF0002068016841F0080101602068016841F033
:1020000001010160DCE7000070B5044600F062F9F0
:102010000546601C02D004480078044400F05AF9D8
:10202000401BA042FAD370BD0C00002070B586B0F2
:102030000546142229496846FEF7D7FF0520FFF719
:10204000E3FF00262648274C012D04D0082D1DD083
:10205000802D3FD12DE0012100F032F9002839D147
:10206000A078401CC0B2A070052800D3A670A1784B
:102070001D485DF82110C1601CA001F0F7FC1A4852
:1020800000F0D2FD184800F0FDFD23E0082100F02B
:1020900017F9F8B96078401C10F0FF00607001D0AB
:1020A000062801D301206070C1B213A001F0DEFC4C
:1020B00010E0802100F004F960B92078401CC0B223
:1020C0002070032800D3267021780EA001F0CEFCEA
:1020D00002F06EF90F48056006B070BD5449000863
:1020E000000002400000002020E100204144435451
:1020F000494D453A25640D00E8B090E6B3A23A2573
:1021000064000000E6A8A1E5BC8FEFBC9A25640A34
:1021100000000000143C0140034910B50968014269
:1021200001D0FFF783FF10BD143C01402DE9F84FAB
:1021300000224FF0010803254FF00F0E0B6808FA3C
:1021400002F42340A34271D14E68012E05D0022E25
:1021500003D0112E01D0122E15D18668570005FA32
:1021600007FC26EA0C06D1F80CC00CFA07FC4CEA76
:10217000060CC0F808C04668A6430C79C4F30014E6
:10218000944034434460C668570005FA07FC8C68E5
:1021900026EA0C06BC403443C4604C68022C01D0D3
:1021A000122C13D1D40800EB8404A346D4F8209059
:1021B00054074FEAD46A0EFA0AF629EA06090E69AC
:1021C00006FA0AF646EA0906CBF8206004680E799A
:1021D00024EA0C0406F00306BE40264306604C6861
:1021E000E40056D52E4C266846F4804626602468C6
:1021F00022F0030604F4804400942A4C3444A4469C
:10220000D4F808489607370F0EFA07F6B443264E5F
:10221000B04201D1002615E0244EB04201D1012682
:1022200010E0234EB04202D102260BE031E0214EF5
:10223000B04201D1032605E01F4EB04201D1042671
:1022400000E00726BE402643CCF808681B4E3468E1
:102250004F689C43FF0300D51C433460174E361D66
:1022600034684F689C43BF0300D51C433460134E51
:10227000083634684F689C43FF0200D51C43346025
:102280000E4E0C3634684F689C43BF0200D51C4389
:102290003460521C102AFFF451AFBDE8F88F0000E3
:1022A0004438024000300140000002400004024077
:1022B00000080240000C024000100240003C0140B7
:1022C0000069084000D0012070470AB18161704761
:1022D0000904FBE701488068704700000C000020FB
:1022E0000248816802781144816070470C00002028
:1022F0000B4810B5016841F400710160016841F4B8
:1023000080610160016841F480710160032000F088
:1023100077F8002000F006F800F024F8002010BD47
:10232000003C024070B50D4D04464FF47A71287898
:10233000B1FBF0F00A490968B1FBF0F000F022FCB3
:1023400048B9102C07D200222146501E00F038F860
:1023500000206C6070BD012070BD00000C000020EA
:10236000180000200E4808B5016841F48041016062
:10237000006800F4804000900948001F016841F0A7
:10238000805101600068002200F08050009001211F
:10239000512000F015F8BDE80840512000F002B8C7
:1023A00044380240002809DB00F01F02012191405F
:1023B0004009800000F1E020C0F8001170470000E3
:1023C000F0B40E4B1B680C46C3F30223C3F10705A0
:1023D000042D00D90425191D072901D2002300E08E
:1023E000DB1E012606FA05F1491E214099409E4058
:1023F000761E16403143F0BC01F05CBB0CED00E0F2
:10240000064900F0070208684FF6FF03184040EA4B
:102410000220034A10430860704700000CED00E002
:102420000000FA052DE9F0470E46050065D0DFF8FB
:102430001481D8F80000F7B200F00F00B04207D2C4
:1024400088F80070D8F8000000F00F00B04254D1B6
:1024500028683D4C810712D5400703D5206840F419
:10246000E05020602878000703D5206840F46040E1
:1024700020602068A96820F0F000084320602878D8
:10248000C0072DD0304968680839012812D00228C9
:1024900013D0032811D00968890700292DDA216893
:1024A00021F0030101432160FFF714FF814641F24F
:1024B000883A0EE009688903EFE709688901ECE7CB
:1024C000FFF708FFA0EB0901514502D90320BDE841
:1024D000F0872068696800F00C00B0EB810FEFD145
:1024E000D8F80010404601F00F01B14207D907703B
:1024F000006800F00F00B04201D00120E7E7287823
:10250000400705D52068E96820F4E05008432060C2
:102510002878000706D52068296920F4604040EA41
:10252000C100206000F038F82168084AC1F30311A7
:10253000515CC8400649086006480068FFF7F2FE93
:102540000020C4E7003C02400838024070490008FF
:1025500018000020100000200448054900680968A0
:10256000044AC1F38221515CC84070471800002022
:102570000838024080490008044805490068096895
:10258000044AC1F34231515CC84070471800002032
:102590000838024080490008104810B5006810F063
:1025A0000C010F4818D0042916D0082914D10B4C5F
:1025B000241F216801F03F02216821680023C1F334
:1025C0008811A1FB0001FEF7DFFC2168C1F3014186
:1025D000491C4900B0FBF1F010BD00000838024072
:1025E0000024F4002DE9F84F040076D02078DFF8BD
:1025F00038A3CE4DC00749D0DAF800105046C1F3D9
:102600008101012908D00068C0F3810002280AD1A5
:10261000281D0068400206D52868800336D560680A
:102620000028E2D032E06068B0F5803F10D0B0F50D
:10263000A02F286810D020F480302860286820F46B
:10264000802028606068A0B1FFF744FE06460CE0D9
:10265000286840F48030F4E740F480202860F7E7F1
:10266000FFF738FE801B642873D828688003F7D5ED
:102670000CE0FFF72FFE064605E000BFFFF72AFE3D
:10268000801B6428F0D828688003F7D42078DFF80E
:10269000A08280074FF000093ED5DAF800105046BE
:1026A00011F00C0F09D00068C0F3810002280BD193
:1026B0009D48001F0068400206D42868800715D591
:1026C000E068012809D111E0E068B8B10120C8F83C
:1026D0000000FFF7FFFD064605E020E1FFF7FAFDE9
:1026E000801B0228C0D828688007F7D52868216990
:1026F00020F0F80040EAC10028600DE0C8F8009022
:10270000FFF7E8FD064604E0FFF7E4FD801B022822
:102710001FD828688007F7D42078000722D5824E7A
:10272000844861696C3671B101210160FFF7D2FD07
:10273000074604E0FFF7CEFDC01B022809D8306829
:102740008007F7D50EE0C0F80090FFF7C3FD0746FD
:1027500005E082E0FFF7BEFDC01B02287DD830688F
:102760008007F7D42078400768D5DFF8BCB1002790
:102770000BF1380BDBF80000C0000BD4DBF80010C5
:1027800041F08051CBF80010DBF80000012700F089
:1027900080500090684E3068C00510D4306840F416
:1027A00080703060FFF796FD009005E0FFF792FD26
:1027B0000099401A022850D83068C005F6D55A4E04
:1027C000A068683601280FD00528306810D020F0A6
:1027D00001003060306820F004003060A068B8B1BB
:1027E000FFF778FD00900FE0306840F00100F4E75B
:1027F00040F004003060F7E7FFF76CFD0099411AE4
:1028000041F28830814266D830688007F4D50EE006
:10281000FFF760FD009007E0FFF75CFD0099411AAB
:1028200041F28830814256D830688007F4D42FB105
:10283000DBF8001021F08051CBF80010A069D0B374
:10284000DAF800205146C2F38102022A4AD0022857
:10285000484607D0C8F8600000E03CE0FFF73AFDCA
:1028600004463BE04746C8F86000FFF733FD0646E4
:1028700005E000BFFFF72EFD801B02282BD828683B
:102880008001F7D4D4E907010843A16A2B4A49081B
:1028900002EB0141626A41EA8211084394F82C106C
:1028A00040EA01612048001F016001203866FFF7FF
:1028B00011FD044605E034E0FFF70CFD001B022883
:1028C00009D828688001F7D52BE000BFFFF702FD8B
:1028D000001B022802D90320BDE8F88F2868800178
:1028E000F4D41EE00128F7D00868E26900F4800102
:1028F000914214D1226A00F03F0191420FD147F674
:10290000C071626A0140914209D1A26A00F440316B
:10291000914204D1E16A00F07060884201D0012048
:10292000DAE70020D8E7000008380240003802400B
:1029300000004742800E4742007000400000FFFF49
:1029400070B5040005D00025A56294F8510010B1BF
:1029500006E0012070BD84F85050204600F030F8A9
:10296000022084F851002068016821F040010160D4
:10297000D4E901010843D4E9031211430843616912
:102980000843218B01F400710843E1690843216A7F
:102990000843A16A084321680860A069042101EA8C
:1029A0001040616A0843216848602068C16921F4C9
:1029B0000061C1616565012084F85100002070BD8F
:1029C00010B586B0044614216846FEF727FB13496C
:1029D0002068884220D112480021026842F48052C7
:1029E0000260006800F4805005900D4814380268B9
:1029F00042F002020260006800F0020005903820F8
:102A000000900220CDE901010320039005200490ED
:102A100069460448FFF78AFB06B010BD003001404C
:102A200044380240000402402DE9F84F044690F873
:102A3000500000271D461646894601280DD04FF04C
:102A4000010B84F850B0FFF745FC804694F8510024
:102A5000BA46012804D002278EE00220BDE8F88F94
:102A6000B9F1000F7DD0002E7BD0032084F85100F7
:102A7000C4F854A0C4F83090A686E686C4F838A0FE
:102A8000A4F83CA0A4F83EA0C4F844A0C4F840A018
:102A9000A068B0F5004F04D12068016841F480417E
:102AA000016020680168490603D4016841F04001D3
:102AB0000160E068B0F5006F606803D030B3012EAC
:102AC00024D040E008B1012E1CD1206B2168008881
:102AD000C86006E020688168890709D5216B0988EC
:102AE000C160206B801C2063E08E401EE08609E000
:102AF000FFF7F0FBA0EB0800A84202D3681C01D04E
:102B000031E07DB3E08E0028E4D11FE0206B216826
:102B10000078087306E020688168890709D5216B71
:102B200009780173206B401C2063E08E401EE08614
:102B300009E0FFF7CFFBA0EB0800A84202D3681C16
:102B400001D010E075B1E08E0028E4D1424629465C
:102B5000204600F0BBFC08B120206065A06820B1D1
:102B600007E008E0FFE7032706E02068C168806807
:102B70000090606D00B1012784F851B084F850A036
:102B800038466BE710B5401EB0F1807F01D30120BD
:102B900010BD4FF0E02460610F21601700F08AFF44
:102BA0000020A06107202061002010BD70B590F8C2
:102BB0003C20012A2CD0012480F83C40022280F8DD
:102BC0003D2003685A689D6822F070060A68324307
:102BD0005A60104B02689A420ED0B2F1804F0BD06F
:102BE0000D4B9A4208D00D4B9A4205D00C4B9A429D
:102BF00002D00C4B9A4204D1496825F08003194356
:102C0000916080F83D40002180F83C10084670BD7E
:102C1000022070BD00000140000400400008004098
:102C2000000C00400040014010B5040003D094F8AF
:102C30003D0010B107E0012010BD002084F83C00E9
:102C4000204600F00DF8022084F83D00211D206888
:102C500000F006FD012084F83D00002010BD0000BA
:102C600008B50068B0F1804F08D10548016841F00F
:102C700001010160006800F00100009008BD000043
:102C800040380240022180F83D1001688A6802F055
:102C90000702062A03D00A6842F001020A600121F5
:102CA00080F83D100020704770B5044690F83C0055
:102CB000012817D0012584F83C50022084F83D00FB
:102CC0002068826822F0770222F47F4282600868DE
:102CD000502830D00DDC20284DD005DC98B31028CA
:102CE0003BD148E0022070BD302844D0402834D188
:102CF00039E0602828D0702806D0B0F5805F2CD04D
:102D0000B0F5005F29D10AE0CB68D1E90121206844
:102D100000F0F2FC2068816841F0770109E0CB689F
:102D2000D1E90121206800F0E7FC2068816841F4C6
:102D30008041816011E0CA684968206800F0EEFCBB
:102D40005021206807E016E0CA684968206800F052
:102D5000F6FC6021206800F0D9FC84F83D5000208A
:102D600084F83C0070BDCA684968206800F0D6FC51
:102D700040212068EFE7226801461046EBE77047E4
:102D800070B5026804461068D168536910F00F0FDF
:102D900053D003F0010501F490762E435FD0C207B3
:102DA00005D0CA0503D5E26B42F00102E263420797
:102DB00005D5DA0703D0E26B42F00202E263820734
:102DC00005D5DA0703D0E26B42F00402E2630207A2
:102DD00007D501F020022A4303D0E26B42F008023B
:102DE000E263E26B002A34D0800604D5880602D55F
:102DF000204600F0CCFC20684069E16BC0F38010F5
:102E000001F008010143204624D000F0B2FC206804
:102E1000416949061AD5416921F040014161606B61
:102E2000A0B11B490165606BFEF76AFF002810D056
:102E3000606B016DBDE87040084783060FD58B06B7
:102E40000DD52046BDE8704000F0A1BC2046FFF73C
:102E500096FF70BDFFF793FF0020E06370BD03068F
:102E600006D50B0604D52046BDE8704000F06EBDC7
:102E70004006F3D54806F1D5D168204621F040013F
:102E8000D160202184F8391000F0D2F870BD000024
:102E90006337000870B5040004D094F839000025A9
:102EA00010B106E0012070BD84F83850204600F0D3
:102EB00023F8242084F839002068C16821F40051E7
:102EC000C160204600F0AEFC2068016921F4904109
:102ED00001612068416921F02A0141612068C168CF
:102EE00041F40051C160E563202084F8390084F882
:102EF0003A00002070BD000010B586B004461421D1
:102F00006846FEF78BF818492068884229D117488F
:102F1000016841F010010160006800F010000590A8
:102F200012481438016841F00101016000686946E7
:102F300000F0010005904FF4C06000900220019065
:102F40000120029003200390072004900848FFF717
:102F5000EDF8002201212520FFF732FA2520FFF7A6
:102F600021FA06B010BD00000010014044380240B4
:102F70000000024070472DE9F843044690F83900FC
:102F80001F4616460D46202850D1B5B1AEB194F873
:102F9000380001284AD0012084F838004FF000089A
:102FA000C4F83C80212084F83900FFF793F9A68407
:102FB0008146E68484F8388026E00120BDE8F88365
:102FC000E08C401EE084A0684B46B0F5805F4FF077
:102FD00000024FF080012046009703D000F0E7FC8C
:102FE000E8B90DE000F0E3FCC8B928882168C0F317
:102FF00008004860206908B16D1C05E0AD1C03E0C5
:10300000216815F8010B4860E08C0028D8D14B46A8
:10301000002240212046009700F0C9FC08B103209F
:10302000CCE7202084F839000020C7E70220C5E75C
:103030007047FEE77FB50024154800940194029480
:1030400012490394C0E9001484600461047680F896
:1030500020404FF08051C1620125C5614FF0C06131
:10306000C460816280F830504561FEF751FD08B1BF
:10307000FEF720FC0095CDE9015469460448FEF7AF
:103080002FFC002801D0FEF715FC7FBD0020014079
:1030900020E00020094808B5016841F48001016082
:1030A0000068002200F48000009001213820FFF722
:1030B00087F9BDE808403820FFF774B9303802407E
:1030C00070B586B014216846FDF7A8FF2648002495
:1030D000016841F080010160016801F08001059103
:1030E000016841F001010160016801F001010591F1
:1030F000016841F00201016000681C4E00F002000E
:103100000590012230213046FFF7DFF8892000903A
:1031100017480125CDE9010569463046FFF706F855
:1031200030200090CDE90154694630460394FEF703
:10313000FDFF002201210620FFF742F90620FFF7DC
:1031400031F9002201210920FFF73AF90920FFF7A0
:1031500029F9002201211720FFF732F91720FFF784
:1031600021F906B070BD0000303802400000024076
:1031700000002110104810B50E4901604FF4827113
:103180004160002102228160C0E9031201224261F4
:10319000520282612822C0E90721416281620A212C
:1031A000C162FFF7CDFB002803D0BDE81040FEF759
:1031B00081BB10BD00300140C8E0002010B586B0D2
:1031C00000241748009401940294039404944FF04F
:1031D0008041059401600221C0E901141E21C0E96B
:1031E000031480218161FFF71FFD08B1FEF762FB28
:1031F0004FF48050009069460948FFF755FD08B12B
:10320000FEF758FB2020CDE9040404A90448FFF789
:10321000CDFC002801D0FEF74DFB06B010BD00002C
:1032200020E100200C4810B50A4901604FF4E1315B
:103230004160002181600C22C160C0E904128161FB
:10324000C161FFF727FE002803D0BDE81040FEF75C
:1032500031BB10BD0010014060E10020FEE7704767
:10326000002000F019B8000010B57F2811D83F29C0
:103270000FD8CB0801F0070101248C40E1B2054CC6
:10328000002A04EBC000C25C01D00A4300E08A437C
:10329000C25410BDA0E1002070B506465FF00004E6
:1032A00004F1B000C0B200F0BDFB002000F0BAFB9A
:1032B000102000F0B7FB0025304600F0C5FB6D1C68
:1032C000EDB2802DF8D3641CE4B2082CE8D370BDB5
:1032D00010B501F029FB6420FEF796FEAE2000F049
:1032E000A1FB202000F09EFB102000F09BFBB020F3
:1032F00000F098FBC82000F095FB002000F092FB46
:10330000102000F08FFB402000F08CFB812000F0AB
:1033100089FBFF2000F086FBA12000F083FBA620A4
:1033200000F080FBA82000F07DFB3F2000F07AFB3E
:10333000A42000F077FBD32000F074FB002000F005
:1033400071FBD52000F06EFBF02000F06BFBD92064
:1033500000F068FB222000F065FBDA2000F062FB41
:10336000122000F05FFBDB2000F05CFB202000F06F
:1033700059FB8D2000F056FB142000F053FBBDE8F4
:103380001040AF2000F04EBB70B50E4E002400BFC1
:1033900004F1B000C0B200F045FB002000F042FB99
:1033A000102000F03FFB002506EBC500005D00F09B
:1033B0004BFB6D1CEDB2802DF6D3641CE4B2082CDF
:1033C000E6D370BDA0E1002010B50446B031C8B20C
:1033D00000F028FB102040EA141000F023FB04F05A
:1033E0000F00BDE8104040F0010000F01BBB0000E2
:1033F0002DE9F047002591468A460446012B22D04C
:10340000DFF8BC80022B24D155E02038C7B27E2CD7
:1034100004D90AF10100002400F0FF0A51462046B9
:10342000FFF7D2FF07EB4700002608EB4007B85D27
:1034300000F00AFB761CF6B2062EF8D3A41D6D1C14
:10344000E4B2EDB201E0DFF87C8019F80500002855
:10345000DBD1BDE8F0872038C7B2782C04D90AF157
:103460000100002400F0FF0A51462046FFF7ACFFA0
:103470005FF0000606EB071118F8010000F0E4FA0F
:10348000761CF6B2082EF5D30AF10100C1B220462F
:10349000FFF79AFF5FF0000606EB071101EB08004B
:1034A000007A00F0D1FA761CF6B2082EF4D3083474
:1034B0006D1CE4B2EDB219F805000028CBD1C8E7C5
:1034C000B04B0008884900087047000038B5044632
:1034D0001248134B0068B0FBF3F04FF47A73584373
:1034E00000906068B0F5827F0DD10B4600920022FB
:1034F0008021204600F016F870B1606D40F0200089
:103500006065032038BD009830B1401E00902068EF
:103510008068C0430006F6D5002038BD18000020A2
:1035200000366E012DE9F0411D4617460E46044651
:10353000DDF8188008E0681C06D0FEF7CBFEA0EB93
:103540000800A8420BD255B12068806836EA000016
:1035500030D00020B842EED10020BDE8F0812068D4
:10356000416821F0E00141606068B0F5827F0BD1D5
:10357000A068B0F5004F02D0B0F5806F04D120688C
:10358000016821F040010160A06AB0F5005F09D137
:103590002068016821F4005101602068016841F44D
:1035A00000510160012084F85100002084F850008F
:1035B0000320D2E70120CDE77047FEF791BE00005F
:1035C00030B593B030216846FDF728FD14210CA8D2
:1035D000FDF724FD19480025016841F08051016084
:1035E000006800F0805011901548016821F44041B6
:1035F00041F4004101600068022400F44040119051
:1036000001200090000401908001CDE906400820CF
:1036100008903C20CDE9090404200B906846FEF791
:10362000E1FF0CA90F2081E83100E002CDE90F0590
:1036300001210CA8FEF7F6FE13B030BD4038024061
:10364000007000400548016841F4700101600349C1
:103650004FF00060803908607047000088ED00E09E
:10366000F0B502681D4B1E4C9F031E4D1E4E984226
:1036700007D0B84205D0A04203D0A84201D0B04242
:1036800004D122F0700C4A6842EA0C02984210D031
:10369000B8420ED0A0420CD0A8420AD0B04208D006
:1036A000124CA04205D0124CA04202D0114CA042B4
:1036B00003D122F44074CA6822434C6922F080028C
:1036C000224302608A68C2620A688262984201D11B
:1036D0000969016301214161F0BD00000000014062
:1036E0000004004000080040000C00400040014081
:1036F000004401400048014010B5846842EA0322BA
:1037000024F47F440A432243826010BD826822F081
:1037100070020A4342F007018160704710B5036AE6
:10372000046A24F001040462846924F0F00444EA89
:10373000021423F00A020A438461026210BD10B52C
:10374000036A23F0100303628369046A23F470435D
:1037500043EA023224F0A00343EA011182610162CC
:1037600010BD10B5806B0021C185C184FFF707FB38
:1037700010BD0168CA6822F49072CA6001684A6983
:1037800022F001024A61202180F83A10704710B5FA
:1037900090F83A10222901D0022010BD8168B1F5BD
:1037A000805F11D00169002901681FD0496801F0CC
:1037B0007F03816A4A1C82620B70C18D491E090415
:1037C000090CC18518D02BE00269816A002A0268C1
:1037D000526805D0D2B20A80816A491C8162ECE746
:1037E000C2F308020A80816A891CF7E74A68816A85
:1037F0004B1C83620A70E0E70168CA6822F020026D
:10380000CA600168CA6822F48072CA6001684A69A5
:1038100022F001024A61202180F83A10FFF7AAFB4A
:10382000002010BD2DE9F041044600680169E268FE
:1038300021F44051114301612169A068E269084304
:103840006169114308432168CA6849F20C639A43CD
:103850000243CA6020684169A26921F440711143A2
:103860004161E069192764253226B0F5004F354AD9
:10387000354920684FF0000806D0884201D09042B8
:1038800036D1FEF779FE35E0884201D0904202D170
:10389000FEF772FE01E0FEF75FFE61684A18A0FBCA
:1038A000070148EB0803FDF76FFB0146B0FBF5F09D
:1038B0000201B1FBF5F06FF01803584301EB8000F3
:1038C00006EBC000B0FBF5F000F0F80002EB4002A0
:1038D000B1FBF5F0584301EB800006EBC000B0FBF4
:1038E000F5F000F00700216810448860BDE8F08121
:1038F000FEF732FE61688B0F8A00A0FB0701FDF71F
:1039000043FB0146B0FBF5F06FF01802504301EBAA
:10391000800006EB0010B0FBF5F000F0F002B1FB08
:10392000F5F002EB0012B1FBF5F06FF0180358430D
:1039300001EB800006EB0010B0FBF5F000F00F008B
:10394000D1E70000001401400010014090F8391048
:10395000212901D0022070478168B1F5805F016A9A
:103960000BD04A1C0262026809785160C18C491E62
:103970000904090CC1840ED017E009880268C1F35C
:103980000801516001690029016A02D0491C0162E5
:10399000ECE7891CFBE70168CA6822F08002CA6074
:1039A0000068C16841F04001C160002070472DE906
:1039B000F041984617460E460446069D1DE0681CD9
:1039C0001BD02DB1FEF786FCA0EB0800A84214D94D
:1039D0002068C16821F4D071C1602068416921F07C
:1039E00001014161202084F8390084F83A00002068
:1039F00084F838000320BDE8F0812068006836EACA
:103A0000000004D00020B842D9D00020F3E7012004
:103A1000F9E700000148FFF7B3B9000060E10020BA
:103A2000FEE7000001B5002210210548FEF74DFC1D
:103A30004FF0FF33012269460248FEF7F5FF08BD4B
:103A400000000240C8E0002001B501221021054815
:103A5000FEF73BFC4FF0FF33012269460248FEF7B8
:103A6000E3FF08BD00000240C8E000200FB4054B92
:103A700010B503A9044A029800F0FEF810BC5DF8E6
:103A800014FB00005D4800081C0000200FB4084B28
:103A900010B504A902AA039800F0EEF8044602A9A2
:103AA000002000F080FC204610BC5DF814FB0000F4
:103AB000A74300080907090E002804DB00F1E020F5
:103AC00080F80014704700F00F0000F1E02080F84B
:103AD000141D704702E008C8121F08C1002AFAD15D
:103AE00070477047002001E001C1121F002AFBD17E
:103AF000704700002DE9FF5F82B00021DDE904304E
:103B0000020DDDF840B0034318D044F61050A2F285
:103B1000FF3242431514119801281FD0A5EB0B006A
:103B2000401C5FEA000A4FF000064E4FDFF8389164
:103B3000B046504615D5CAF1000413E0119801248F
:103B40004AA3012801D16FEA0B010298119AC0E93A
:103B50000031C0E9024206B0BDE8F09FCBF10000A1
:103B6000DFE704460021404A491842EB0450CDE902
:103B7000001012E0E00707D032463B464046494677
:103B8000FDF7FEFA8046894632463B461046194606
:103B9000FDF7F6FA06460F466410002CEAD1DDE97F
:103BA0000401DDE90023BAF1000F06DAFDF7E8FAB7
:103BB00042464B46FDF7E4FA05E0FDF753FB42466B
:103BC0004B46FDF74FFB04460E460022284BFDF7FF
:103BD00007FD03D84FF0FF30014607E00022254BD8
:103BE00020463146FDF725FAFDF7E1FC102409E0F7
:103BF000002C0ADB0A220023FDF7C6F9039B3032B2
:103C00001A55641E50EA0102F2D1641C039AC4F1F1
:103C100011031444119A012A03D0012208430DD143
:103C20000AE0084304D000204FF0110B119072E716
:103C3000A3EB0B056D1E0DE05B4504DD4FF00002AC
:103C400005F1010504E003DA4FF00002A5F10105DA
:103C5000002AECD002981199C0E90231C0E9004570
:103C600079E70000000014400000F03F3000000041
:103C70000000F0430000E03F2DE9FF4F95B09B4668
:103C80008946064600250FE2252877D100242746DD
:103C9000F84A0121059400E0044316F8013F203B57
:103CA00001FA03F01042F7D130782A2811D06FF0D2
:103CB0002F033078A0F13002092A16D8059A44F073
:103CC000020402EB820203EB42021044761C0590D0
:103CD000EFE759F8042B0592002A03DA504244F426
:103CE0000054059044F00204761C30782E2816D13A
:103CF00016F8010F44F004042A280DD06FF02F02AB
:103D00003078A0F13003092B09D807EB870302EBC9
:103D10004303C718761CF3E759F8047B761C307808
:103D20006C280FD006DC4C2817D068280DD06A28E4
:103D300014D104E0742810D07A280FD10DE044F497
:103D400000140AE044F4801401E044F44014727852
:103D5000824202D104F58014761C761C30786628E5
:103D60000BD013DC582877D009DC002875D0452803
:103D7000F6D04628F4D047281AD19DE118E06328F0
:103D800035D0642879D0652812D195E1702873D098
:103D900008DC6728F1D069286FD06E280DD06F2815
:103DA00006D1B5E073282CD0752875D0782874D04A
:103DB0005A46179990476D1C75E1C4F302500228CA
:103DC00009D003280DD0D9F8001004280DD00D60BB
:103DD00009F1040967E1D9F80010EA17C1E90052B6
:103DE000F6E7D9F800100D80F2E70D70F0E719F84A
:103DF000041B8DF8001000208DF80100EA46012018
:103E000003E059F804AB4FF0FF3061074FF00001B9
:103E100002D40DE008F101018846B9420FDA80456D
:103E2000F8DB1AF808100029F4D108E008F10101C4
:103E300088468142FADB1AF808100029F6D1059865
:103E40005B46A0EB080721463846179A00F094FA23
:103E5000284400EB080507E04DE029E10DE01AF8E1
:103E6000010B5A4617999047B8F10108F7D25B4603
:103E700021463846179A13E142E00A220092C4F321
:103E800002524FF0000A022A08D059F804CB032A44
:103E90004FEAEC710AD00DE029E02AE009F10701B0
:103EA00021F00702F2E802C1914609E00FFA8CFC0A
:103EB0004FEAEC71042A03D14FFA8CFC4FEAEC7103
:103EC000002907DA0A460021DCF1000C61EB02014F
:103ED0002D2202E0220504D52B228DF80420012298
:103EE00003E0E20701D02022F7E7904659E00A21DB
:103EF00002E010220DE010214FF0000A00910BE0CB
:103F000010224FF0000A44F004040827009203E056
:103F100008224FF0000A0092C4F30252022A05D090
:103F200059F804CB0021032A08D009E009F1070160
:103F300021F00702F2E802C1914605E01FFA8CFC6D
:103F4000042A01D10CF0FF0C4FF00008220728D5FD
:103F5000702806D0009B83F0100353EA0A0305D0B3
:103F60000EE040228DF80420012208E05CEA010204
:103F700006D030228DF804208DF8050002229046EC
:103F8000009B83F0080353EA0A030AD15CEA0102AA
:103F900001D1620705D530228DF804204FF00108C9
:103FA0007F1E582804D034A003900EA802900DE084
:103FB00036A0F9E753466046009AFCF7E5FF8446D1
:103FC0000398825C0298401E029002705CEA010035
:103FD000F0D1029806A9081A00F1200A600702D55C
:103FE00024F4803400E00127574502DDA7EB0A00E6
:103FF00000E0002000EB0A01009005984144401ABF
:104000000590E00306D45B462146179A059800F018
:10401000B3F90544002706E001A85A46C05D179988
:1040200090476D1C7F1C4745F6DBE0030CD55B46D3
:104030002146179A059800F09FF9054404E03020C6
:104040005A46179990476D1C0099481E0090002908
:10405000F5DC08E0029802995A460078491C029162
:10406000179990476D1CBAF10001AAF1010AF1DC21
:1040700065E100000928010030313233343536372C
:1040800038396162636465660000000030313233A4
:104090003435363738394142434445460000000044
:1040A00000F058F90544761C307800287FF4ECAD18
:1040B00019B02846BDE8F08F620700D4062709F141
:1040C000070222F0070CFCE80223E14603F0004857
:1040D0005FEA080C02D00FF2702C0DE05FEA045C7E
:1040E00002D50FF2682C07E05FEAC47C02D00FF221
:1040F000602C01E0AFF2700C4FF0FF3823F000436A
:10410000CDF850C065280CD006DC452809D04628DB
:104110001DD047283DD13DE0662818D067287ED1C4
:1041200038E00021112F01DB112000E0781CCDE9DF
:10413000000106A90EA8FFF7DDFCDDE90F010E9ACC
:1041400003910021009207F1010A04914DE04FF024
:1041500000400097CDE9011006A90EA8FFF7CAFCA0
:10416000DDE90F0203920E9B11990022DDF80CA0ED
:104170000093049211B9791C00EB010AB7EB0A0015
:1041800004D4C0F1FF3007F1010A0490AAEB070044
:10419000019044E0012F00DA01270021112F01DDF9
:1041A000112000E03846CDE9000106A90EA8FFF76E
:1041B000A1FCDDE90F010E9A039100210491009208
:1041C000BA4621070CD40399514500DA8A46BAF160
:1041D000010F05DD009AAAF10101515C302908D0D8
:1041E000B84202DA10F1040F06DA0121CDE901101C
:1041F00015E0AAF10101E9E7002805DC0499014472
:104200000491AAEB000102E0411C514500DD8A4601
:104210000499401A401C01904FF000400290200782
:1042200004D40198504501DBCDF8048000208DF8BE
:104230004F0002980DF14F07B0F1004F25D02B2011
:104240000E9002984FF0020800280CDA40420290CB
:104250002D200E9007E00A210298FDF7CDF83031AD
:10426000029007F8011DB8F10001A8F10108F2DC85
:1042700002980028EFD1791E0E980870307800F06F
:10428000200040F0450007F8020D12A8C01B00F105
:1042900007081498007800B1012000EB0A0101988A
:1042A00001EBE07105984144401A401E0590E0037F
:1042B00006D45B462146179A059800F05DF8054440
:1042C0001498007818B15A46179990476D1CE0036E
:1042D00024D55B462146179A059800F04DF8054411
:1042E0001CE00498002807DBDDE90301884203DDB8
:1042F0000098405C179901E0179930205A46904782
:10430000049805F10105401C04900198401E01909D
:1043100004D12E205A46179990476D1CBAF100011E
:10432000AAF1010ADDDC05E017F8010B5A461799DE
:1043300090476D1CB8F10001A8F10108F4DC5B4660
:104340002146179A0598ABE62D0000002B000000CF
:10435000200000002DE9F041044600251E461746C6
:10436000880404D405E039462020B0476D1C641E43
:10437000F9D52846BDE8F0812DE9F0410446002535
:104380001E469046C80301D5302700E02027880448
:1043900004D505E041463846B0476D1C641EF9D58A
:1043A0002846BDE8F0810A68531C0B601070704706
:1043B0002DE9F0432DED088B8DB0FD4D28789FED54
:1043C000FD8B9FEDFEAB98BB00F054FAFD4E002430
:1043D0009FEDFDBB06EB84100088FCF7B2FFB0EE4A
:1043E000489AF0EE689A53EC192BFCF7C9FE53EC8F
:1043F0001B2BFCF7C5FE53EC192BFCF733FFB0EE7B
:104400004A1AF0EE6A1A53EC112BFCF7B9FEFCF7CE
:10441000A5FFC0F14000C1B201222046FEF724FFF3
:10442000641CE4B27F2CD5D9FEF7AEFFFDF744FA49
:10443000A9462878E64D01287ED1FEF711FFE54C0C
:1044400043F69821E068B1FBF0F2E3A108A8FFF77A
:104450001DFB0021022308AA0846FEF7C9FF00261B
:104460009FEDE09AE04F4FF4805800BF05EB8600C7
:10447000D9ED010A90ED000A4846B4EEE00AF1EEEB
:1044800010FA02DC90ED020A15E080ED010A00EE60
:10449000106AB8EEC00ADFEDD50A60EE200A94ED8E
:1044A000030AB8EE401A80EE810ADFEDD10A20EE51
:1044B000200A80ED020ABDEEC00AE26810EE101A72
:1044C00001EB810191FBF7F15143B8EB413F08D873
:1044D000012189F801100223C6A206210020FEF75F
:1044E00087FF761C4645C1DB99F801004E46B0EEC9
:1044F000000A062878D2DFE800F077033BA0E1FA53
:10450000D6ED010A20EE800A10EE100AFCF745FFF6
:1045100041EC100BB9A153EC102B6846FFF7B6FA2B
:104520007068FCF73AFF41EC100BB6A053EC102B6F
:10453000FFF79CFAB06800E056E0FCF72EFF41EC74
:10454000100BB2A153EC102B04A8FFF79FFA022323
:1045500086ED019A6A4619460020FEF749FF0223BC
:1045600004AA04210020FEF743FF0223A9A237E09A
:10457000D6ED020AE168FDEEE00A10EE900A400076
:1045800090FBF7F0484305EB8030D0ED000A20EEB9
:10459000800A10EE100AFCF700FF41EC100B97A107
:1045A00053EC102B6846FFF771FAB068FCF7F5FE84
:1045B00041EC100B95A153EC102B04A8FFF766FA01
:1045C000022386ED019A6A4619460020FEF710FF85
:1045D000022304AA04210020FEF70AFF02238FA26F
:1045E00006210020FEF704FF99F8000002287DD183
:1045F0005FF0000405EBC4100068FCF7CEFE53EC3E
:10460000182BFCF72FFE53EC1A2BFCF7B9FDFCF727
:10461000A5FEC0F13F0081B23F22204600F046F9DE
:10462000641CE4B27F2CE5D9FEF7AEFE0DB0BDEC04
:10463000088BBDE8F043FDF73FB9D6ED020AE1680B
:10464000FDEEE00A10EE900A00EB400090FBF7F060
:10465000484305EB8030D0ED000A20EE800A10EED2
:10466000100AFCF79AFE41EC100B64A153EC102BDE
:104670006846FFF70BFA96ED020AF0EE080A20EE04
:10468000200A10EE100AFCF788FE41EC100B5FA127
:1046900053EC102B04A8FFF7F9F9022386ED019AD9
:1046A0006A4619460020FEF7A3FE022304AA04214D
:1046B0000020FEF79DFE02235AA291E7D6ED020AE2
:1046C000E168FDEEE00A10EE900A800090FBF7F042
:1046D000484305EB8030D0ED000A20EE800A10EE52
:1046E000100AFCF75AFE41EC100B01E0ADE028E0A7
:1046F00053EC102B41A16846FFF7C8F996ED020A6A
:10470000F1EE000A20EE200A10EE100AFCF745FE3A
:1047100041EC100B3DA153EC102B04A8FFF7B6F9A8
:10472000022386ED019A6A4619460020FEF760FED4
:10473000022304AA04210020FEF75AFE02233BA212
:104740004EE7D6ED020AE168FDEEE00A10EE900AAF
:1047500000EB800090FBF7F0484305EB8030D0ED94
:10476000000A20EE800A10EE100AFCF716FE41EC5B
:10477000100B22A153EC102B6846FFF787F996ED3A
:10478000020AF1EE040A20EE200A10EE100AFCF7ED
:1047900004FE41EC100B1DA153EC102B04A8FFF7F5
:1047A00075F9022386ED019A6A461946002041E018
:1047B000000000206666666666660A40000000002B
:1047C0000000504020000020000000000000303FAA
:1047D00020A0002020E100204D415820485A3A25D1
:1047E000646B000000000000C0C62D00C0E1E44B77
:1047F000000080396572726F72000000563A252EF3
:1048000032660000252E32660A000000463A252E48
:104810003266000046697273740000005365636F6E
:104820006E6400005468726565000000466F757222
:1048300000000000FEF7DCFD022304AA0421002092
:10484000FEF7D6FD022303A2CAE60DB0BDEC088B2D
:10485000BDE8F083466976650000000013B50223C9
:10486000012269460248FEF786FB00981CBD000045
:1048700060E1002000B5782200213F2000F007F819
:104880003F22002108465DF804EB00F00FB870B538
:10489000154606460C4606E0F1B2E0B20122FEF7EC
:1048A000E3FC641CA4B2AC42F6D970BD70B51546E9
:1048B00006460C4606E0E1B2F0B20122FEF7D4FC57
:1048C000641CA4B2AC42F6D970BD0000FDF710FD27
:1048D000FEF776FEFEF7F4FBFEF7DCFBFEF7AAFB25
:1048E000FEF7A0FCFEF746FCFEF768FCFEF7F0FCC6
:1048F000FCF7E2FFFEF748FD084941F27070C8601E
:104900000846FEF791F90548FEF7BCF94FF48052CE
:1049100003490448FDF774F9FEE7000020E1002098
:104920002000002020E0002010B5094C00222021AA
:104930002046FDF7CAFC0A20FDF766FB0122202174
:104940002046FDF7C2FCBDE810400A20FDF75CBB25
:104950000000024070170000B80B00002C0100009E
:104960001E0000000F0000000006101600061016C2
:10497000000000000000000001020304060708090F
:10498000000000000102030400000000000000001D
:10499000002F000000000700070000147F147F14A0
:1049A00000242A7F2A120062640813230036495526
:1049B000225000000503000000001C2241000000FE
:1049C00041221C000014083E08140008083E080894
:1049D000000000A0600000080808080800006060EF
:1049E0000000002010080402003E5149453E00002E
:1049F000427F4000004261514946002141454B3110
:104A0000001814127F10002745454539003C4A49DB
:104A1000493000017109050300364949493600064D
:104A20004949291E000036360000000056360000B5
:104A30000008142241000014141414140000412230
:104A4000140800020151090600324959513E007C08
:104A50001211127C007F49494936003E41414122F2
:104A6000007F4141221C007F49494941007F0909DB
:104A70000901003E4149497A007F0808087F00008B
:104A8000417F4100002040413F01007F0814224146
:104A9000007F40404040007F020C027F007F0408FE
:104AA000107F003E4141413E007F09090906003E5A
:104AB0004151215E007F0919294600464949493183
:104AC0000001017F0101003F4040403F001F2040A6
:104AD000201F003F4038403F006314081463000764
:104AE0000870080700615149454300007F414100BB
:104AF00000552A552A55000041417F00000402015B
:104B00000204004040404040000001020400002038
:104B100054545478007F4844443800384444442076
:104B200000384444487F00385454541800087E0923
:104B300001020018A4A4A47C007F080404780000EB
:104B4000447D4000004080847D00007F10284400A8
:104B50000000417F4000007C04180478007C0804B9
:104B6000047800384444443800FC242424180018F5
:104B7000242418FC007C08040408004854545420E1
:104B800000043F444020003C4040207C001C20406A
:104B9000201C003C4030403C004428102844001CAD
:104BA000A0A0A07C004464544C44141414141414A5
:104BB00000000000000000000000000000000000F5
:104BC000000000F80000000000000033300000008A
:104BD00000100C06100C0600000000000000000091
:104BE00040C07840C0784000043F04043F04040003
:104BF000007088FC08300000001820FF211E000013
:104C0000F008F000E018000000211C031E211E0027
:104C100000F00888700000001E21232419272110AD
:104C200010160E0000000000000000000000000050
:104C3000000000E0180402000000000718204000F7
:104C400000020418E00000000040201807000000E7
:104C5000404080F0804040000202010F010202004B
:104C6000000000F0000000000101011F010101002F
:104C7000000000000000000080B070000000000094
:104C8000000000000000000000010101010101011D
:104C900000000000000000000030300000000000B4
:104CA0000000000080601804006018060100000089
:104CB00000E010080810E000000F102020100F0086
:104CC000001010F8000000000020203F202000000D
:104CD0000070080808887000003028242221300065
:104CE00000300888884830000018202020110E006D
:104CF0000000C02010F8000000070424243F240016
:104D000000F80888880808000019212020110E00EA
:104D100000E0108888180000000F112020110E00FC
:104D200000380808C83808000000003F00000000F4
:104D30000070880808887000001C222121221C00B5
:104D400000E010080810E0000000312222110F00DE
:104D5000000000C0C0000000000000303000000073
:104D600000000080000000000000806000000000E3
:104D700000008040201008000001020408102000FC
:104D80004040404040404000040404040404040047
:104D900000081020408000000020100804020100DC
:104DA000007048080808F0000000003036010000DC
:104DB000C030C828E810E0000718272423140B008F
:104DC0000000C038E0000000203C23020227382009
:104DD00008F8888888700000203F202020110E00ED
:104DE000C0300808080838000718202020100800E4
:104DF00008F808080810E000203F202020100F00CD
:104E000008F88888E8081000203F20202320180098
:104E100008F88888E8081000203F20000300000000
:104E2000C03008080838000007182020221E0200A1
:104E300008F808000008F808203F210101213F2060
:104E4000000808F8080800000020203F202000008B
:104E500000000808F8080800C08080807F0000007B
:104E600008F888C028180800203F200126382000B4
:104E700008F8080000000000203F2020202030001B
:104E800008F8F800F8F80800203F003F003F200035
:104E900008F830C00008F808203F200007183F003D
:104EA000E01008080810E0000F10202020100F006C
:104EB00008F808080808F000203F2101010100005F
:104EC000E01008080810E0000F18242438504F00A4
:104ED00008F8888888887000203F2000030C302064
:104EE00000708808080838000038202121221C00A2
:104EF000180808F8080818000000203F20000000EB
:104F000008F808000008F808001F202020201F00D3
:104F10000878880000C83808000007380E01000033
:104F2000F80800F80008F800033C0700073C0300FD
:104F3000081868808068180820302C03032C302063
:104F40000838C800C83808000000203F20000000D2
:104F500010080808C838080020382621202018002A
:104F6000000000FE020202000000007F40404000FE
:104F7000000C30C000000000000000010638C00036
:104F800000020202FE000000004040407F000000DE
:104F90000000040202020400000000000000000003
:104FA0000000000000000000808080808080808001
:104FB00000020204000000000000000000000000E9
:104FC00000008080808000000019242222223F20DF
:104FD00008F8008080000000003F112020110E0022
:104FE0000000008080800000000E112020201100B1
:104FF000000000808088F800000E112020103F2063
:105000000000808080800000001F222222221300E6
:10501000008080F0888888180020203F2020000031
:105020000000808080808000006B949494936000E6
:1050300008F8008080800000203F210000203F20F1
:1050400000809898000000000020203F20200000F1
:10505000000000809898000000C08080807F0000E1
:1050600008F8000080808000203F24022D302000BE
:10507000000808F8000000000020203F2020000069
:105080008080808080808000203F20003F20003F83
:105090008080008080800000203F210000203F2091
:1050A0000000808080800000001F202020201F0042
:1050B000808000808000000080FFA12020110E0071
:1050C0000000008080808000000E112020A0FF8062
:1050D000808080008080800020203F21200001000F
:1050E0000000808080808000003324242424190064
:1050F000008080E0808000000000001F2020000071
:105100008080000000808000001F202020103F20B1
:10511000808080000080808000010E300806010041
:1051200080800080008080800F300C030C300F00E6
:1051300000808000808080000020312E0E31200011
:10514000808080000080808080818E701806010041
:1051500000808080808080000021302C222130005F
:1051600000000000807C020200000000003F404080
:1051700000000000FF00000000000000FF00000031
:105180000002027C800000000040403F0000000060
:1051900000060101020204040000000000000000FB
:1051A00000100000B0510008B0D10008C00F00008E
:1051B0000000803F00000000ECFF7F3FD40FC93AA1
:1051C000B1FF7F3FC70F493B4EFF7F3FC1CB963BAF
:1051D000C4FE7F3F890FC93B13FE7F3F3053FB3B2B
:1051E00039FD7F3F59CB163C39FC7F3F02ED2F3C08
:1051F00011FB7F3F900E493CC1F97F3F0030623C7C
:105200004AF87F3F4B517B3CACF67F3F38398A3CB4
:10521000E6F47F3FB6C9963CF8F27F3F1C5AA33CA8
:10522000E3F07F3F69EAAF3CA7EE7F3F9B7ABC3C4F
:1052300043EC7F3FB00AC93CB8E97F3FA69AD53C12
:1052400005E77F3F7B2AE23C2BE47F3F2DBAEE3C13
:1052500029E17F3FB949FB3C00DE7F3F90EC033DF5
:10526000AFDA7F3F2F340A3D37D77F3FB87B103D01
:1052700098D37F3F2CC3163DD1CF7F3F880A1D3D79
:10528000E2CB7F3FCC51233DCCC77F3FF698293DF1
:105290008FC37F3F07E02F3D2ABF7F3FFC26363D6F
:1052A0009EBA7F3FD56D3C3DEAB57F3F91B4423D0C
:1052B0000FB17F3F2FFB483D0DAC7F3FAF414F3DCE
:1052C000E3A67F3F0E88553D91A17F3F4CCE5B3DCD
:1052D000189C7F3F6814623D78967F3F625A683D14
:1052E000B1907F3F38A06E3DC28A7F3FE9E5743DB3
:1052F000AB847F3F742B7B3D6D7E7F3F6CB8803DE0
:1053000008787F3F0ADB833D7B717F3F94FD863DBC
:10531000C76A7F3F0A208A3DEC637F3F6A428D3D2A
:10532000E95C7F3FB464903DBF557F3FE786933D86
:105330006D4E7F3F05A9963DF4467F3F0ACB993DD0
:10534000543F7F3FF9EC9C3D8D377F3FCF0EA03D12
:105350009D2F7F3F8C30A33D87277F3F3052A63D56
:10536000491F7F3FBA73A93DE4167F3F2B95AC3DA3
:10537000580E7F3F80B6AF3DA4057F3FBBD7B23DFF
:10538000C9FC7E3FDAF8B53DC7F37E3FDD19B93D74
:105390009DEA7E3FC33ABC3D4CE17E3F8D5BBF3D05
:1053A000D4D77E3F397CC23D34CE7E3FC69CC53DBE
:1053B0006DC47E3F36BDC83D7FBA7E3F86DDCB3DA6
:1053C00069B07E3FB7FDCE3D2DA67E3FC81DD23DC4
:1053D000C99B7E3FB93DD53D3D917E3F895DD83D1E
:1053E0008B867E3F377DDB3DB17B7E3FC49CDE3DBF
:1053F000B0707E3F2EBCE13D88657E3F76DBE43DAC
:10540000385A7E3F9AFAE73DC14E7E3F9A19EB3DEE
:1054100023437E3F7638EE3D5E377E3F2E57F13D8B
:10542000722B7E3FC075F43D5E1F7E3F2C94F73D8E
:1054300024137E3F73B2FA3DC2067E3F92D0FD3DFB
:1054400038FA7D3F4577003E88ED7D3F2E06023ECF
:10545000B1E07D3F0295033EB2D37D3FC223053EBE
:105460008CC67D3F6EB2063E40B97D3F0541083E89
:10547000CCAB7D3F86CF093E309E7D3FF35D0B3E3A
:105480006E907D3F4AEC0C3E85827D3F8B7A0E3ECE
:1054900074747D3FB708103E3D667D3FCC96113E4B
:1054A000DE577D3FCA24133E59497D3FB2B2143EB8
:1054B000AC3A7D3F8340163ED82B7D3F3DCE173E14
:1054C000DD1C7D3FE05B193EBC0D7D3F6BE91A3E64
:1054D00073FE7C3FDE761C3E03EF7C3F38041E3EAD
:1054E0006CDF7C3F7B911F3EAECF7C3FA51E213EF3
:1054F000C9BF7C3FB6AB223EBDAF7C3FAD38243E3A
:105500008A9F7C3F8CC5253E318F7C3F5152273E80
:10551000B07E7C3FFCDE283E086E7C3F8D6B2A3ED1
:105520003A5D7C3F04F82B3E444C7C3F61842D3E29
:10553000283B7C3FA2102F3EE5297C3FC99C303E92
:105540007A187C3FD428323EE9067C3FC4B4333E0F
:1055500031F57B3F9840353E53E37B3F50CC363EA0
:105560004DD17B3FEC57383E20BF7B3F6CE3393E4B
:10557000CDAC7B3FCF6E3B3E539A7B3F15FA3C3E12
:10558000B2877B3F3E853E3EEA747B3F4910403EFA
:10559000FC617B3F379B413EE74E7B3F0726433E06
:1055A000AB3B7B3FB9B0443E48287B3F4D3B463E3A
:1055B000BE147B3FC2C5473E0E017B3F1850493E9B
:1055C00037ED7A3F4FDA4A3E3AD97A3F67644C3E2C
:1055D00016C57A3F60EE4D3ECBB07A3F38784F3EED
:1055E000599C7A3FF101513EC1877A3F898B523EE7
:1055F00002737A3F0115543E1C5E7A3F589E553E19
:1056000010497A3F8F27573EDD337A3FA4B0583E8A
:10561000841E7A3F97395A3E04097A3F6AC25B3E3C
:105620005EF3793F1A4B5D3E91DD793FA8D35E3E34
:105630009DC7793F135C603E83B1793F5CE4613E76
:10564000439B793F836C633EDC84793F86F4643E00
:105650004E6E793F667C663E9A57793F2204683EDB
:10566000C040793FBA8B693EBF29793F2F136B3E0B
:105670009812793F7F9A6C3E4AFB783FAB216E3E91
:10568000D6E3783FB2A86F3E3BCC783F942F713E73
:105690007BB4783F51B6723E939C783FE83C743EB1
:1056A0008684783F5AC3753E526C783FA649773E50
:1056B000F853783FCCCF783E773B783FCB557A3E56
:1056C000D122783FA4DB7B3E040A783F56617D3EC1
:1056D00010F1773FE1E67E3EF7D7773F2236803EF6
:1056E000B7BE773FC0F8803E51A5773F4ABB813EA9
:1056F000C58B773FC07D823E1372773F2240833E49
:105700003A58773F7002843E3C3E773FAAC4843EBD
:105710001724773FCE86853ECC09773FDF48863E0B
:105720005BEF763FDA0A873EC4D4763FC1CC873E32
:1057300007BA763F938E883E249F763F5050893E2D
:105740001B84763FF8118A3EEC68763F8AD38A3E06
:10575000974D763F07958B3E1B32763F6E568C3EBB
:105760007A16763FC0178D3EB3FA753FFCD88D3E52
:10577000C6DE753F229A8E3EB3C2753F325B8F3EC6
:105780007BA6753F2C1C903E1C8A753F10DD903E19
:10579000976D753FDD9D913EED50753F945E923E55
:1057A0001D34753F351F933E2717753FBFDF933E6E
:1057B0000BFA743F31A0943EC9DC743F8D60953E76
:1057C00062BF743FD220963ED5A1743F00E1963E61
:1057D0002284743F17A1973E4966743F1661983E34
:1057E0004B48743FFE20993E272A743FCEE0993EF5
:1057F000DD0B743F86A09A3E6EED733F27609B3EA3
:10580000D9CE733FAF1F9C3E1FB0733F20DF9C3E3D
:105810003F91733F789E9D3E3972733FB85D9E3EC7
:105820000E53733FDF1C9F3EBE33733FEEDB9F3E44
:105830004714733FE59AA03EACF4723FC259A13EB3
:10584000EBD4723F8718A23E04B5723F33D7A23E15
:10585000F894723FC595A33EC774723F3F54A43E6F
:105860007054723F9F12A53EF433723FE5D0A53EBF
:105870005213723F128FA63E8CF2713F254DA73E08
:105880009FD1713F1F0BA83E8EB0713FFEC8A83E4E
:10589000578F713FC486A93EFB6D713F6F44AA3E8E
:1058A0007A4C713F0102AB3ED42A713F77BFAB3EC9
:1058B0000809713FD47CAC3E17E7703F153AAD3E06
:1058C00002C5703F3CF7AD3EC6A2703F49B4AE3E44
:1058D0006680703F3A71AF3EE15D703F102EB03E82
:1058E000373B703FCBEAB03E6718703F6BA7B13EC5
:1058F00073F56F3FEF63B23E5AD26F3F5820B33E0D
:105900001BAF6F3FA5DCB33EB88B6F3FD698B43E5C
:1059100030686F3FEC54B53E83446F3FE610B63EAF
:10592000B0206F3FC3CCB63EBAFC6E3F8488B73E12
:105930009ED86E3F2A44B83E5DB46E3FB2FFB83E7B
:10594000F88F6E3F1EBBB93E6D6B6E3F6E76BA3EF2
:10595000BE466E3FA031BB3EEB216E3FB6ECBB3E78
:10596000F2FC6D3FAFA7BC3ED5D76D3F8B62BD3E0D
:1059700093B26D3F4A1DBE3E2D8D6D3FEBD7BE3EAF
:10598000A1676D3F6F92BF3EF2416D3FD54CC03E67
:105990001D1C6D3F1E07C13E24F66C3F48C1C13E31
:1059A00007D06C3F557BC23EC5A96C3F4435C33E12
:1059B0005E836C3F15EFC33ED45C6C3FC8A8C43E09
:1059C00024366C3F5C62C53E500F6C3FD21BC63E16
:1059D00058E86B3F29D5C63E3BC16B3F628EC73E40
:1059E000FB996B3F7C47C83E95726B3F7700C93E81
:1059F0000C4B6B3F53B9C93E5E236B3F1072CA3EDE
:105A00008CFB6A3FAE2ACB3E95D36A3F2CE3CB3E5C
:105A10007BAB6A3F8B9BCC3E3C836A3FCA53CD3EF7
:105A2000D95A6A3FEA0BCE3E52326A3FEAC3CE3EB3
:105A3000A7096A3FCA7BCF3ED7E0693F8A33D03E91
:105A4000E4B7693F2AEBD03ECC8E693FAAA2D13E93
:105A50009165693F095AD23E323C693F4811D33EB5
:105A6000AE12693F67C8D33E07E9683F647FD43E02
:105A70003CBF683F4136D53E4C95683FFDECD53E76
:105A8000396B683F99A3D63E0341683F135AD73E0E
:105A9000A816683F6B10D83E2AEC673FA3C6D83ED5
:105AA00087C1673FB97CD93EC196673FAD32DA3EC8
:105AB000D86B673F80E8DA3ECA40673F319EDB3EE5
:105AC0009915673FC153DC3E45EA663F2E09DD3E2E
:105AD000CCBE663F79BEDD3E3093663FA273DE3EAC
